:020000040000fa
:080000000002040000000000f2
:020000040000fa
:100400008f1d21000e7f22000e01880000000000d9
:100410000c000700a0742900010020001100070053
:10042000000020000000e000020032000000020096
:1004300000000000a4730200000000000040da0089
:100440000000fe004440a900c01f20000000e000a2
:100450000300320000002000a00188004440a800f2
:100460000000060091018800800078000000eb0089
:1004700015003700e280400032a0b4009101ba00bc
:10048000e280400032a0b4009102ba00e280400055
:1004900032a0b4000002eb00472bde00f507b200eb
:1004a000602ce10004003a000059eb008301e900f0
:1004b000fdff3e00040037006128e100010032002a
:1004c0000082eb00040007001101ba000200e00006
:1004d000e8ff3a00000006003159ba008301e90044
:1004e0000c0032002159ba008301e90008003200f3
:1004f0000400e00003003a00e280400032a0b400b3
:10050000f5ff370011d9ba008301e900faff3a007c
:100510008100e800e180400032a0b4000000060045
:100520000003b1000b0035009000b100080034005a
:100530008000b100070035005000b1000400340015
:10054000b001b100030035005000b10001003c00d3
:1005500010000500000005000a00fa008001780084
:10056000e20f500028003e0000848000e10f5000a0
:1005700008003200802320000000e0000500320067
:10058000042320002523200046232000800178003a
:1005900004003700042220002522200046222000eb
:1005a00083222000144090000004e0000400350085
:1005b0008009eb00144090000074a00010429800e5
:1005c000154090000028a30003003a001540900059
:1005d0000024a000904298008001eb000700370043
:1005e000154090000008a300fdff320063c07800b2
:1005f0000000fb00000b78008301e800828f5100af
:10060000f7ff3a000800370030002000b0bf9f001d
:10061000c3bf9f00d1bf9f00e2bf9f006a80570009
:1006200000c0da006fb99700020078000080fa007d
:1006300000000600881f7800000478005001be000a
:100640004000be00040040008580480006014900cb
:1006500087814900009cbe000294be000400e100b6
:100660000588e1000690e1000798e10002003100f2
:10067000680044001008e8004f04780000000600fd
:10068000f4874700889fbe008a9fbe008c9fbe00f3
:100690008e1f78000205be000004be00d4b79f0084
:1006a000e5b79f00f6b79f0087bf9f000000eb00f3
:1006b000c0b79f00b0b79f00a0b79f0090b79f0042
:1006c00080b79f000d042000bfb097004fb0970087
:1006d000000140000000e0000f003d004f08de0078
:1006e00000007100c0b79f009e00070001003d00a0
:1006f00012002000a100070001003d0012002000b0
:10070000a6000700b1000700b60007000f00400078
:10071000c8ff0700220037004f08de000006710006
:10072000ccb79f008f00070001003d0012002000a1
:100730009200070001003d00120020009700070012
:10074000a20007000fb297009fb297002fb3970047
:10075000bfb39700a90007000000520081805a0033
:1007600002015b0083815b0080b79f0091b79f000f
:10077000a2b79f00b3b79f000007eb009f000700e0
:100780000020e10001a8e10002b0e10003b8e100af
:10079000010031001e0020000e005600c0b79f006f
:1007a0004fb297000400e000070035001000200061
:1007b000010020006011b8000804700089847000f6
:1007c0000a0571008b8571008d06e900beff3a00b5
:1007d0000400e00003003d00820007000f0040001d
:1007e00094ff07004fa897000000e00004003a00c3
:1007f0000fb497009fb497002fb59700bfb597002f
:10080000940007004f0778004f06be004f05be005a
:100810004f04be004f01b10000000600881f7800a1
:1008200018002000881f780095ff07008f87e900d7
:100830004f04780000000600801feb0090ff0700c7
:100840008f87e90000000600889fbe008a9fbe00d7
:100850008c1f78006e00070007003d007300070042
:10086000e00f5b00e08f5b0007003d0032000700f7
:100870000006eb00040037003400070002003d00d2
:100880002a0007001c00200072000700e3ff070099
:100890000203be000002be000c00e00001003200b6
:1008a000220007000400be000601be004f067800cb
:1008b0004f05be004f04be0000000600889fbe002a
:1008c0008a9fbe008c1f78005100070005003d0084
:1008d00056000700e00f5b00e08f5b0006003d0064
:1008e000040037001900070003003d006000b80055
:1008f0006011b8001000070056000700ceff070087
:100900000203be000002be000c00e0000100320045
:10091000060007000400be000601be004f06780076
:100920004f05be004f04be00000006006000b80086
:100930006011b800000037000402500085825800a2
:100940000603590087835900000006000006eb00eb
:10095000e00f5200e08f5a00e00f5b00e08f5b0079
:10096000000006000180400090b79f000001eb00ee
:100970008fb097000100e000000006000200700048
:1009800090b79f000180400080b79f000001eb00fe
:10099000ffa897000100e0000000060002007000c0
:1009a00080b79f00018040006faa9700cf20de0033
:1009b00001007000f0af9f00040242002500070014
:1009c0004f18de000002720000000600e4af9f0036
:1009d0000804440089844c000a054d008b854d00b5
:1009e000000006003fb29700cfb297005fb39700b8
:1009f000efb3970000fe2f00000006003fb0970005
:100a0000cfb097005fb19700efb1970000000600ec
:100a10000205be000004be00e00f5000e08f580049
:100a2000e00f5900e08f5900000006006000b80098
:100a30006011b80008045000898458000a05590064
:100a40008b8559001c002000e00f5200e08f5a00f7
:100a5000000006000800be000a01be0000000600fb
:100a6000889fbe008a9fbe008c1f78000205be00d2
:100a70000004be000006eb00e00f5000e08f5800bd
:100a8000e00f5900e08f590007003d006000b800fa
:100a90006011b80008045000898458000a05590004
:100aa0008b8559001c002000e00f5200e08f5a0097
:100ab000e00f5b00e08f5b0002003d000f000700cd
:100ac0000c00a2000800be000a01be0012000700d0
:100ad0000203be000002be000c00e0000100320074
:100ae000060007000400be000601be004f067800a5
:100af0004f05be004f04be00000006006000b800b5
:100b00006011b800040250008582580006035900a5
:100b10008783590000000600889fbe008a9fbe00a0
:100b20008c9fbe000404b8000506b8008904460086
:100b300060854e000606b8000a054600e0854e00b6
:100b40000706b8008b054600040eb800890446006d
:100b50000a854e00e0854d00050eb8000a054600e6
:100b60008b854e00060eb8008b0546000416b800b3
:100b70000a0546008b854e000516b8008b05460019
:100b8000041eb8008b0546000800be000a01be0026
:100b90004f06be004f05be004f04be000000060019
:100ba000800078000001780030c2bf00664060001d
:100bb000e64f500010003a000500370033c2bf0076
:100bc0000018a300fdff3a00a21188008180e80010
:100bd000110178000200e000f8ff3a000000060072
:100be00033c2bf000018a300fdff3a000100fb0064
:100bf000a01188000201e800924078000104e000a2
:100c0000f7ff3a0000000600800078003004e000a2
:100c1000feff3a00010050000000e900000006005d
:100c20008001eb0002003700817178008301e80049
:100c3000828f5100fcff3a0000000600000378009c
:100c400080027800020278008001eb000800370083
:100c50000402e90063c07800805a78008301e8004c
:100c60000004e00002003a008000eb0006003700bc
:100c7000828f5100f6ff3a00fbff37000040eb0087
:100c800080f07a008100e800848f5000fbff3a007a
:100c900006007800000006000400fa00e0bf9f0094
:100ca000e4815700812978000002eb000f00370033
:100cb0006fb89700904078007fb897001040780098
:100cc0000402e80080cf5000040032008180fb0065
:100cd0000080fb0000805000070037006fb89700cd
:100ce0000000e800e0bf9f009309e800820f520077
:100cf000efff3a000000eb000080fa000000060061
:100d00008001eb000200370061f079008301e80008
:100d1000828f5100fcff3a00000006000c00fa0030
:100d2000889fbe0000047800cfb09700f0ff270036
:100d3000d0bf9f008004eb0099bf9f0088bf9f0039
:100d4000a8bf9f00200c2000b0bf9f0078815700f3
:100d500070805700080007000fb897000948780016
:100d60000fb8970008045000080078004f04be0038
:100d70000080fa0000000600fe874700889fbe0042
:100d80008a9fbe008c9fbe008e1f7800f0b79f0028
:100d90000107780082bf9f000000eb00a0b79f0012
:100da0009f0237008006eb0050c2b30080cf500096
:100db000090032000100fb00ffb09700a30207000a
:100dc000e10f400096023200afb097008100e800ca
:100dd000a1b79f00920237009e407800d0c2b300b6
:100de00080cf50000c00320007003c006d405000e6
:100df00080cf50000a0032006b40400080cf50008e
:100e00000e003a000800370000c3b30080cf500046
:100e10000a003a00060037000d30a0000500370038
:100e20000d00a000030037000d10a00001003700e6
:100e30000d20a0000e07e800e7ff37000d18a30003
:100e4000010032000d00a1000d38a30001003200a6
:100e50000d20a1000100fb0002fd2f000200400058
:100e6000e90f50000e003e000002eb00c4b79f00e7
:100e700082017800cfb297006a28b9001e01fb00fa
:100e80000001410003014100c2b79f005e00fb006a
:100e900003004000e90f50000b003e00f5ff370053
:100ea0000006eb00ccb79f00a0c2b30080cf50007b
:100eb00005003a000fb89700c000780080bf9f007f
:100ec000c1b79f000e07e8000001eb00b2b79f001a
:100ed000e0c2b3009e4f100018003a000de0a000e1
:100ee0008e00e80064405000914f10000200320074
:100ef000010778000c0037000fba9700c402780091
:100f000084bf9f00b5b79f000e87e8000b00370035
:100f10003fb697006a60b90000004100030040003e
:100f2000b0b79f000e07e8001e01fb0003fd2f0075
:100f300003004100e90f5000f5ff3600be40780085
:100f4000e1d79f00c0c6b30080cf5000220032001e
:100f50000f003c006940500080cf50007700320005
:100f600004003c000104e000310232006b405000fc
:100f70000f00370040c6b30080cf5000930032000e
:100f80006540400080cf50008b003a008f00370052
:100f900030c7b30080cf50001a00320007003c0079
:100fa0006440500080cf5000110032000040e80043
:100fb00080cf500080003a000f00370050c7b300c8
:100fc00080cf5000800032006340400080cf50004e
:100fd00079003a0009003700000028000d48a300fe
:100fe00001003a000001200080867600d3ff370020
:100ff0000d60a000750037000d50a0000d70a0001e
:10100000720037008fb897004100780081bf9f00c1
:10101000000478000000e00001003a0028182100d8
:101020008004eb00010037008104e80089007800ab
:10103000088044001004e000fbff3a003fb1970035
:101040000200e00003003200890f5100010031006e
:10105000820478000002eb00e4af9f00cfb297005b
:10106000898f52000200360009805200e0af9f00d5
:101070004368de00e10660001b003a000d067800c0
:1010800009003700ffb0970000022000ef010700c1
:10109000e10f4000030032002fb097000000e8008d
:1010a000a0b79f000c06e800efa89700810f56003c
:1010b000f4ff3a000081eb00e2af9f000a00370026
:1010c000880078003100fb0001047800ffb0970031
:1010d000de010700e10f4000030032002fb297004d
:1010e0000402e800a4b79f000900e900800478002a
:1010f000e10f4000f2ff3a000006eb000d00e000b7
:101100000a003a00c6013700ffb097000002200035
:10111000ce010700e10f400003003200afb297009c
:101120008502e800a5b79f000c06e8006fa89700ad
:10113000800f5600f4ff3a00b90137008fb89700ce
:101140004100780081bf9f00cf80de000101780060
:10115000820178000205be000004be000203be004a
:101160000002be004822de00482edd0004027600a8
:10117000e4d79f000d48a3000a0032000404e000f9
:1011800008003200e14f42000600320071fd2f00de
:10119000018047000448780018409800290020008a
:1011a00002003700f0d79f001900200072fd2f00c9
:1011b00002844700a1ff370064fd2f00048447002c
:1011c000190020009dff37000d0cb3000d007800c2
:1011d000000cb20028003a000d00e00005003d00c0
:1011e0008fba97004505be004504be0085bf9f002d
:1011f000140037000d48a3000b0032000fbe97000b
:101200004c00be008cbf9f004f89de00cf91de00f6
:101210000002be0002037800820378000605be00cb
:101220000404be00070037008fb897004100780023
:1012300081bf9f0000047800cfc4de00090578005c
:101240008a057800e00f5400e08f5c00e00f5d003d
:10125000e08f5d001f003d003d00b3006000b8005e
:101260006011b80008045000898458000a0559002c
:101270008b855900170037000d00e00005003d0088
:101280000fb997004205be004204be0082bf9f0016
:10129000100037000d48a300070032000fba970076
:1012a0004400be0084bf9f006011b8000205be006c
:1012b0000004be00070037008fba97004500780091
:1012c00085bf9f0000047800090020000a0020006c
:1012d0000b0020003fb697000c00e00007003a002a
:1012e000e00f5400e08f5c00e00f5d00e08f5d00d8
:1012f00002003a0010002000b0b79f008d00780077
:10130000010cb200e1b79f0000042000808f500064
:101310003000320003003c000100e0000800320011
:1013200040003700000820006fb19700800f510087
:1013300014003200000c2000800f510039003a00e8
:1013400014c0b300250e21000b0037000400fb0081
:101350004300dd00050040005001be004000be001b
:101360000040e10001c8e10002d0e10003d8e10043
:101370002b0039000442e800f44f5200f3ff3a001a
:101380002700370000012000010020006011b80094
:1013900014c0b3000040e10001c8e10002d0e10048
:1013a00003d8e1001e003900450020000000d000f5
:1013b0008180d2000281d2008381d2008502e900bf
:1013c000faff3a000442e800f04f5200f1ff3a0001
:1013d0001300370080002000010020006011b800d9
:1013e00014c0b3000040e10001c8e10002d0e100f8
:1013f00003d8e1000a0039003c0020000000d000c2
:101400008180d2000281d2008381d2000c06e900e3
:10141000faff3a000442e800f54f5200f1ff3a00ab
:10142000e4d79f00efd097000100fb003fb1970089
:10143000820f500002003d00e2d79f0004003700f9
:101440003fb29700800f520001003d00b0b79f00ef
:10145000cfb297000500e000040032006380660010
:10146000020032008502e900c5b79f000de8a30025
:101470000b0032004fb697003fb09700800f560028
:1014800003003c008000eb00c1b79f000400370060
:101490004fb197003fb2970004015100c2b79f00bf
:1014a000efd297000500fb000006eb00dcaf9f00c9
:1014b000cfb09700808f50000200340000805000b1
:1014c000d0af9f000d28a30037003200e1806600f6
:1014d0000d18a3000c003200d00220000100e00033
:1014e00001003a000080e900ffb09700d700070034
:1014f000e10f40000e0032002fb197000201e8001a
:10150000a2b79f000a0037000100e0000800320087
:10151000ffb0970000022000cc000700e10f400060
:10152000030032002fb297000402e800a4b79f0026
:10153000dfaa97000500e0000f0032000006eb0074
:10154000ffb0970000032000c0000700e10f40003b
:10155000030032002fb097000000e800a0b79f0002
:101560000c06e800dfa89700810f5600f4ff3a0050
:101570000001eb00d2af9f003fb29700c320dd0017
:10158000a00d21008080400091b79f004220dd0027
:101590006400500080b79f006320b900f0af9f0047
:1015a0006306500084003700dfaa97000500e000c2
:1015b00011003200688066000f003a0000067800d3
:1015c000ffb0970000022000a0000700e10f4000dc
:1015d000030032002fb097000000e800a0b79f0082
:1015e0000c06e800dfa89700810f5600f4ff3a00d0
:1015f0000001eb00d2af9f00e18066000d18a30050
:101600000c003200d00220000100e00001003a008e
:101610000080e900ffb097008c000700e10f400058
:10162000d5ff32002fb297000402e800a4b79f0054
:10163000d1ff37000100e000cfff3200ffb097007c
:101640000002200081000700e10f4000caff3200c5
:10165000afb297008502e800a5b79f00c6ff37002c
:1016600000042000efb09700808f5000310032005e
:1016700003003c000100e000080032003e0037009b
:10168000000820006fb19700800f51001100320058
:10169000000c2000800f510037003a001fb0970067
:1016a0003002be002003be000800be000a01be00da
:1016b0005afc0700a4002000050020006033b80099
:1016c0005dfc070004c3b30004424000e4d79f0060
:1016d0002900370095182100d5b79f000d58a300a9
:1016e00002003a00a0192100d0b79f00140020008a
:1016f000050020006033b8008fb097008100e9003a
:10170000050033000402d0008582d2000683d20097
:101710008783d200f9ff37000800be000a01be002f
:101720003efc07006f0060005fb1970062407800e8
:101730001000370014002000050020006033b800be
:101740000c0078000000e900050033000402d0001e
:101750008582d2000683d2008783d200f9ff37004a
:101760000800be000a01be002cfc070067406000b4
:101770000043b000e0d79f00efd097000100fb00ce
:10178000ffb0970031000700e10f40000300320076
:101790002fb197000201e800a2b79f001fb2970087
:1017a0006802520094b79f008fb29700e482520003
:1017b00085b79f0063065600d0ff2f003fb197000a
:1017c0000090b9007faa970000004200630050001b
:1017d000800f5600a2ff3a000d38a300100032001f
:1017e000dfaa97000500e0000d0034000006eb00c2
:1017f000ffb097000002200014000700e10f400036
:10180000030032002fb097000000e800a0b79f004f
:101810000c06e800dfa89700810f5600f4ff3a009d
:10182000be407800e1d79f000104e0005dfd3a0072
:101830002fb097004f0778004f06be004f05be003f
:101840004f04be00ef01b10000000600889fbe00fb
:101850000001780001047800b10090000118a30095
:101860003d0032000198a30003003a0018009000e8
:101870000000e00038003a000190a0003104980018
:1018800082047800f90fb200180090000000e00018
:1018900002003a0028009000000c7800ea8f540003
:1018a00006003a00380090000078a30003003a00d8
:1018b00088007800d0002000e4ff07009800900026
:1018c00058009000808f50000b0032000100e800ab
:1018d000100498001800780009587800000c78006f
:1018e00011c0b300601d210001487800ea8f540048
:1018f000060032001900370088007800094078009f
:1019000019000700800478001400370038009000a8
:101910000088a3001100320018019000a800900078
:10192000480090000cfb070098009000810f5000c9
:1019300004003200380090000003b3003004980027
:101940008084eb000000eb00100498002800900059
:10195000000c7800010037008084eb00090078005b
:101960004f04be00000006000200fa00889fbe007f
:10197000a0ff9f0001047800b1009000810478006e
:101980000904b200020032000000fb0036003700fc
:101990000118a30005003a000103b30031049800c8
:1019a000190498000080eb002f00370058009000c9
:1019b0000000e00006003a004800900012002000fd
:1019c000e6805700e4fa0700190498002400370065
:1019d000280090000000e00008003a00201d2100cf
:1019e00020049800000c780020002000500498008b
:1019f000100498000130a0003104980018019000f4
:101a0000a800900048009000d3fa0700280090003a
:101a1000000c78000080eb0010049800180078009b
:101a2000aff8970001587800000c78002ff8970065
:101a3000ea4f50000a003a00380090000088a300e6
:101a40000700320018019000a800900048009000a4
:101a5000c1fa070019049800a8009000010c780052
:101a6000aff897000100fb004f04be000080fa00b1
:041a7000000006006c
:020000040000fa
:020000040001f9
:0457f800dff90000d5
:020000040000fa
:020000040001f9
:0457fc007f3f0000eb
:020000040000fa
:10000800267100003a7100004e7100006271000014
:10001800767100002671000026710000267100002c
:100028002671000026710000267100003aa4000025
:10003800267100002671000026710000267100005c
:10004800267100002671000026710000267100004c
:10005800267100002671000026710000267100003c
:10006800267100002671000026710000267100002c
:10007800fca800002671000026710000267100000f
:10008800267100002671000026710000267100000c
:1000980026710000267100002671000026710000fc
:1000a80026710000267100002671000026710000ec
:1000b80026710000267100002671000026710000dc
:1000c80026710000267100002671000026710000cc
:1000d80026710000267100002671000026710000bc
:1000e80026710000267100002671000026710000ac
:1000f800267100002671000026710000267100009c
:10010800267100002671000026710000267100008b
:10011800267100002671000026710000267100007b
:10012800267100002671000026710000267100006b
:10013800267100002671000026710000267100005b
:10014800267100002671000026710000267100004b
:10015800267100002671000026710000267100003b
:10016800267100002671000026710000267100002b
:10017800267100002671000026710000267100001b
:10018800267100002671000026710000267100000b
:1001980026710000267100002671000026710000fb
:1001a80026710000267100002671000026710000eb
:1001b80026710000267100002671000026710000db
:1001c80026710000267100002671000026710000cb
:1001d80026710000267100002671000026710000bb
:1001e80026710000267100002671000026710000ab
:0801f8002671000026710000d1
:020000040000fa
:10020800267100003a7100004e7100006271000012
:10021800767100002671000026710000267100002a
:100228002671000026710000267100003aa4000023
:10023800267100002671000026710000267100005a
:10024800267100002671000026710000267100004a
:10025800267100002671000026710000267100003a
:10026800267100002671000026710000267100002a
:10027800fca800002671000026710000267100000d
:10028800267100002671000026710000267100000a
:1002980026710000267100002671000026710000fa
:1002a80026710000267100002671000026710000ea
:1002b80026710000267100002671000026710000da
:1002c80026710000267100002671000026710000ca
:1002d80026710000267100002671000026710000ba
:1002e80026710000267100002671000026710000aa
:1002f800267100002671000026710000267100009a
:100308002671000026710000267100002671000089
:100318002671000026710000267100002671000079
:100328002671000026710000267100002671000069
:100338002671000026710000267100002671000059
:100348002671000026710000267100002671000049
:100358002671000026710000267100002671000039
:100368002671000026710000267100002671000029
:100378002671000026710000267100002671000019
:100388002671000026710000267100002671000009
:1003980026710000267100002671000026710000f9
:1003a80026710000267100002671000026710000e9
:1003b80026710000267100002671000026710000d9
:1003c80026710000267100002671000026710000c9
:1003d80026710000267100002671000026710000b9
:1003e80026710000267100002671000026710000a9
:0803f8002671000026710000cf
:020000040000fa
:101a7400686500006c700000004c00006973000091
:101a840074730000206100006c6c0000206300008f
:101a94006f6d00006d6100006e6400007300000053
:101aa40067650000747700006676000065720000c8
:101ab40000470000657400007320000057690000af
:101ac4004669000020640000657600006963000038
:101ad400652000007665000072730000696f0000e5
:101ae4006e00000072650000736500007400000061
:101af400526500007365000074200000686f0000e8
:101b040073740000204d0000435500000063000082
:101b14006c730000004300006c65000061720000fb
:101b2400732000007363000072650000656e00009e
:101b34000073000065650000206400006f6300000e
:101b4400756d0000656e000074610000746900002a
:101b54006f6e000000700000696e000067000000f6
:101b6400706900006e670000203100003932000007
:101b74002e310000363800002e3100002e310000d6
:101b8400000000003a8d00003f8d000002000000bc
:101b9400528d00005b8d000001000000748d000078
:101ba4007a8d000001000000898d00008d8d0000f9
:101bb40001000000ad8d0000b28d000001000000a6
:101bc400050000006c6f0000636100006c00000001
:101bd4002e0000005f73000065720000766900004b
:101be40063650000732e00005f6400006e730000e4
:101bf4002d730000642e00005f7500006470000007
:101c04002e6c00006f630000616c00000042000055
:101c1400414c00004c4f00004f4e00005f49000053
:101c240049000000010000005e00000000fb00000d
:101c340020200000204800006f7300007420000082
:101c4400726500006769000073740000657200002b
:101c5400656400003a200000000d00000a00000046
:101c64002020000020200000202000002020000070
:101c740020710000756100006c6900006669000055
:101c8400656400003a200000005300006572000003
:101c9400766900006365000020720000656700003b
:101ca400697300007465000072650000643a000006
:101cb4002000000025640000002000002020000017
:101cc4002020000020200000202000002020000010
:101cd40020200000207000006f720000743a0000a1
:101ce40020000000202000002020000054580000a4
:101cf40054200000726500006769000073740000de
:101d040065720000656400003a20000000000000d5
:101d1400424100004c4c00004f4f00004e5f000059
:101d24004949000000420000616c00006c6f000033
:101d34006f6e000020760000322e0000300000009c
:101d44005f6c0000756d0000696700006565000048
:101d54006b2e00005f750000647000002e6c0000a4
:101d64006f630000616c00000001000002030000ca
:101d74000405000006070000080900000a0b000023
:101d840000040000a3000000000000004261000005
:101d94006c6c00006f6f00006e5800006d690000ed
:101da400745f000049490000000000002f6100003a
:101db400636300006c250000752f0000782f00007d
:101dc400002f000061630000636c000025750000b3
:101dd4002f7900002f0000002f61000063630000d2
:101de4006c250000752f00007a2f0000002c0000e5
:101df4006900000000000000000000000d0a00005f
:101e040044480000435000002f5000006f7700004a
:101e14006572000020650000766500006e740000a5
:101e2400206f00006363000075720000726500009b
:101e34006400000008000000e8030000e80300005c
:101e440008000000e8030000e803000000040000ac
:101e5400a3000000000000000101000001000000d8
:081e64003078000000000000ce
:020000040000fa
:101e6c000200fa00004f7800d0d0bf009e4f500007
:101e7c001b003200d0d0bf00e24f40000a003200fd
:101e8c00d0d0bf000080fb007e00b900800078003d
:101e9c0060e120000080400061eb20000e00090092
:101eac0031187800e001b1001e407800d0f0b70086
:101ebc00e0cfb3009e4f1000090032001e80fb00e3
:101ecc007e00b9008000780060e1200000804000b6
:101edc0061eb20000e000900b0187800e001b100a1
:101eec000080fa00000006000000fa00110d21002d
:101efc0091407800d0d0bf0080cf50002400320039
:101f0c00d1d0bf00e24f40001600320020e5200087
:101f1c0000017800d1d0bf000080fb007e00b9002a
:101f2c00fc00400060e120000080400090427800fe
:101f3c00d1d0bf000080fb007e00b900800078008b
:101f4c0060e12000008040009000780080fd2f00b0
:101f5c00008040008402200013c0b300854078004c
:101f6c008c100700d0d0bf00d1f0b70023ed2000bb
:101f7c0093417800b175800080fd2f0000814000f6
:101f8c0020e520008402200011c0b300811007005e
:101f9c000080fa00000006000c00fa00889fbe00ca
:101fac00a0752100000f7800908680000000e000f2
:101fbc0008003a00b06a02000000000080007800bf
:101fcc00f07f2000808060000040200000804000f6
:101fdc0090868800a0e72000c20320008000eb0060
:101fec0010060200000000000040eb00204f98009b
:101ffc000040eb00304f9800530037003e489000f3
:10200c0097ff07003e4890000080fb006600b90077
:10201c0080007800c0f128000080400090409000c3
:10202c00214798003e4890000080fb006600b900f4
:10203c008080e800c0f1280000804000900078000b
:10204c00410798003e4890000080fb006600b900f4
:10205c00e4004000c0f128000080400090007800af
:10206c00310798002e4090000080fb000000e0003b
:10207c0001003200330037001e0078002007980062
:10208c00ce0090003e009000008040001e004000fa
:10209c00a1022000010f40001e0078006104b8006e
:1020ac00ae620200000000006101b800a0752100c2
:1020bc00010020000200400083804800800f540083
:1020cc00818f5c00f4ff3e002e409000d2eeb700f2
:1020dc002e0090008002b000b0758800b1758000b1
:1020ec004e009000008040000000e800c0758800a1
:1020fc00c17580003e00900000804000d0758800c3
:10210c00d000200060768800ce6ea90076ff070014
:10211c003e4890000080fb006600b900800078000b
:10212c00c0f12800008040001040780079eeb70024
:10213c00720a07003e4890000040e800304f9800bb
:10214c0001003700ffff37003e489000e14f500080
:10215c00aaff36004f04be000080fa000000060003
:10216c001000fa00100798002107980062479800a9
:10217c0043079800244f98000040eb00004f780074
:10218c00760037001e40780035ff0700607680002f
:10219c00ed0f500070003a0053ff070091e720004c
:1021ac00914078002e48900080cf50006a003a0091
:1021bc0080212000b07388006e4090000004e00085
:1021cc0008003a004e00900010738800ce6ea800f4
:1021dc0040002000607688004e00900080768800d9
:1021ec005a00370091868000f03f2000808f50000d
:1021fc00040036009186800080382100808f5000ca
:10220c0002003600004020009086880090868000f6
:10221c00107388000000e800908688004e00900043
:10222c00007388009ca30200000000002076880048
:10223c0031768800ce8ea8006e4090000080fb00a6
:10224c00700798007e009000e30f500004003200ed
:10225c007e009000e40f5000180032003b00370065
:10226c000e80e800900090000e80e80010007800ce
:10227c00808040004e0090008080400010738000f1
:10228c0000806800807688001e009000ae009000f0
:10229c0040738800517388000040eb0078eeb70063
:1022ac00d00320000100200090728800a1728800e9
:1022bc002000200060768800240037001e0090006b
:1022cc00ae00900080007800214090000081fb005f
:1022dc00314090000080fb004800dd0002007000df
:1022ec00000178001e009000ae0090009080fb0072
:1022fc00104090000080fb004800dd0001007000e1
:10230c00800041004e0090008080400010738000df
:10231c0000806800807688001e009000ae0090005f
:10232c008000780080e62000090009003158780010
:10233c00a000b100a100b100500020006076880020
:10234c0011c0b30020c0b300aa0607001e80fb001a
:10235c0060079800060037001e4fe80010c0b3005d
:10236c009e4f100087ff3600e00f2000600798009a
:10237c006e0090000080fa00000006000400fa00d5
:10238c00004f780010c0b3009e4f100003003600c1
:10239c0010002000100798000d0037001e40780038
:1023ac00affe070070768000010021000100600084
:1023bc000000e00004003200cf8ea90010002000c5
:1023cc0010079800020037000000eb00100798007f
:1023dc001e0090000080fa00000006000400fa00c5
:1023ec00004f780010c0b3009e4f10000300360061
:1023fc008000eb0011079800090037001e407800a0
:10240c0097fe0700607680008000eb0011079800b3
:10241c00e70f500002003a0010002000100798004f
:10242c001e0090000080fa00000006000400fa0074
:10243c00004f780010c0b3009e4f100045003e00c6
:10244c001e40780086fe070000768000107688001b
:10245c0061768000110798001e009000e50f500077
:10246c00190032009e009000e58f500008003e00dd
:10247c001e0090000000e000130032009e0090004f
:10248c000180e900e10f50002e003e000e003700e5
:10249c001e009000eb0f50001a0032009e009000be
:1024ac00eb8f500004003e001e009000e70f500020
:1024bc0024003e00060037009e009000ee8f500076
:1024cc001d0032001f0037008c0907002100370067
:1024dc0011c0b30010c1b300460607002073800082
:1024ec000000e00004003200e1758000f072800012
:1024fc00808f5000f6ff3a00800020006076880044
:10250c001400370011c0b30010c1b3003906070026
:10251c00207380000000e00004003200e1758000b0
:10252c00f0728000808f5000f6ff3a00c00020004f
:10253c006076880007003700d000200060768800a5
:10254c00040037008040eb0040c1b30029060700af
:10255c006a0907000080fa00000006000200fa0079
:10256c00004f780010c0b3009e4f100005003e00d5
:10257c001e4078003afe0700ce6ea9001e4078007f
:10258c00aaff07000080fa00000006000400fa0011
:10259c00004f780010c0b3009e4f100003003600af
:1025ac008000eb00110798000b0037001e407800ec
:1025bc002bfe07004cfe0700a0e0200081e6200067
:1025cc00090009003158780000738000a070880061
:1025dc00a0e02000100798001e0090000080fa0078
:1025ec00000006000200fa00004f780010c0b30093
:1025fc009e4f10000a003e001e40780018fe070097
:10260c0039fe0700e1758000f0728000808f500069
:10261c000300320011c0b30000c1b300f505070080
:10262c000080fa00000006000600fa00204798001f
:10263c002e409000e14f5000030036000000eb00ec
:10264c0020079800200037002e40900004fe070061
:10265c0060768000004f780070c0b3009e4f100071
:10266c0006003200b0c0b3009e4f100003003200d1
:10267c000000eb002007980013003700e175800084
:10268c00f0758000808f50000a003900c175800001
:10269c00b075800000815000f1758000e0758000fd
:1026ac0000805000000041000000e9002007980065
:1026bc0005003700f0758000e175800001005000c6
:1026cc000000e900200798002e0090000080fa001e
:1026dc00000006000600fa002047980031479800d9
:1026ec002e409000e14f5000030036000000eb003c
:1026fc0020079800400037002e409000d8fd0700be
:10270c002e409000c8ff0700000f78001e00e0006c
:10271c0003003a000000eb00200798003600370059
:10272c00100020009e0f100002003a002e40900076
:10273c00acff0700707680000110200001006000e3
:10274c000000e00009003a00c1758000b0758000ff
:10275c00008050000000d1009e0f50000300390093
:10276c002e4090009fff0700cf0ea800630047008b
:10277c000001780021ed200091407800e075800088
:10278c001400200013c0b300820e0700e075800017
:10279c000000e800e0758800e1758000c0758000dd
:1027ac00808f500002003900b0758000e075880001
:1027bc00100020009e0f100003003a002e409000e5
:1027cc0088ff07000a0037007076800001022000a5
:1027dc00010060000000e00005003a00ceaea80049
:1027ec00c4a302000000000069004000407688008d
:1027fc0010002000200798002e0090000080fa00a6
:10280c00000006000e00fa0060479800410798008f
:10281c00520798000000eb00000f78006e4090000b
:10282c00e14f5000030036000000eb0060079800f9
:10283c005e0037006e40900089fd07006e409000ee
:10284c0079ff0700100798001e0090000000e000c0
:10285c0005003a006e40900062ff07000000eb009c
:10286c0060079800510037001e0090002007980068
:10287c009e0090005e009000808f50000200360099
:10288c005e009000200798007076800001102000f8
:10289c00010060000000e0000a003a00c1758000f1
:1028ac00b0758000008050008000d1001e009000a8
:1028bc00808f5000030039006e40900049ff0700e4
:1028cc00cf0ea800e17580002e00900080804000a3
:1028dc00c0758000808f500014003900c1758000d5
:1028ec00e0758000008f50004e00900000017800d1
:1028fc0021ed200091407800e07580001e027800e8
:10290c0013c0b300230e07009e0078004e00900009
:10291c0001004000400798002e0090001e0050005f
:10292c0020079800b0758000e07588004e0090007c
:10293c000001780021ed200091407800e0758000c6
:10294c002e02900013c0b300120e0700e175800038
:10295c002e00900000804000e07588009e009000e2
:10296c005e009000808f500003003e006e4090008f
:10297c001cff07000a00370070768000010220005f
:10298c00010060000000e00005003a00ceaea80097
:10299c00c4a30200000000006900400040768800db
:1029ac002e0090001e004000600798006e00900002
:1029bc000080fa00000006000400fa00004f7800c6
:1029cc00110798001e009000040602000000000091
:1029dc00000178009e0090001e40780089ff0700df
:1029ec00800078001e009000008040000080fa00fb
:1029fc00000006000800fa00404798004e40900086
:102a0c00e14f5000030036000000eb003007980047
:102a1c000c0037004e40900011fd0700c17580007e
:102a2c00b075800000805000000fe9004e4090000f
:102a3c00fdfe0700100798001e0090001e001000fd
:102a4c00300798003e0090000080fa00000006005d
:102a5c000200fa00004f78001e4078000b000700bf
:102a6c000000e000070032001e407800fcfc07006c
:102a7c00007680001076880011c0b30000c1b3004e
:102a8c00dc0407000080fa00000006000400fa00d5
:102a9c00004f780010c0b3009e4f100003003600aa
:102aac000000eb0010079800140037001e4078005f
:102abc00ebfc07000176800010768000808f5000c0
:102acc00050039000176800010768000808050006f
:102adc001107980009003700d1758000107680002e
:102aec000081500001768000c0758000008050008d
:102afc00000041000000e800100798001e00900044
:102b0c000080fa00000006000800fa002047980038
:102b1c00210798002e409000dcff0700000f780082
:102b2c001e00e00003003a000000eb0030079800a4
:102b3c00270037002e409000c9fc07002e009000a3
:102b4c000000e0000800320021ed200091407800e8
:102b5c00127680002e009000140020008141780035
:102b6c0011c0b3008b0d0700107680000000e80048
:102b7c001076880011768000d0758000808f500010
:102b8c0002003600c075800010768800100020000e
:102b9c009e0f100002003a00cf4ea8000a0037002a
:102bac007076800001022000010060000000e0004f
:102bbc0005003a00ceaea800c4a30200000000003d
:102bcc000003b00040768800100020003007980009
:102bdc003e0090000080fa00000006000c00fa0095
:102bec004047980031079800420798000000eb001e
:102bfc00000f78004e409000a4ff070010079800cb
:102c0c001e0090000000e00003003a000000eb0002
:102c1c00500798004c0037004e40900090fc070085
:102c2c00ce0090001e009000808f500002003600f5
:102c3c001e00900040079800117680004e00900016
:102c4c0080804000d0758000808f500018003600c6
:102c5c00d17580001076800000805000000fe800d5
:102c6c003e0090000000e0000c00320021ed20003e
:102c7c0091407800127680003e0090001e02780091
:102c8c008141780011c0b300420d07009e0078000e
:102c9c003e00900001004000300798004e0090006c
:102cac001e00500040079800c07580001076880008
:102cbc003e0090000000e0000800320021ed2000f2
:102ccc0091407800127680003e0090004e029000f9
:102cdc008141780011c0b3002e0d070011768000e1
:102cec004e00900000804000107688004e0090004e
:102cfc001e004000400798009e0090004e0090007f
:102d0c00808050004e009000808f500002003e00ea
:102d1c00cf4ea8000a003700707680000102200018
:102d2c00010060000000e00005003a00ceaea800f3
:102d3c00c4a30200000000000003b000407688002d
:102d4c004e009000500798005e0090000080fa0042
:102d5c00000006000800fa00404798004e40900022
:102d6c00e14f5000030036000000eb0030079800e4
:102d7c000b0037004e40900039fc0700d1758000e5
:102d8c00c0758000008f50004e4090003fff070040
:102d9c00100798001e0090001e00100030079800cd
:102dac003e0090000080fa00000006001000fa00bf
:102dbc0060479800410798005207980063079800f5
:102dcc006e409000e14f500003003e005e0090000a
:102ddc000000e00003003a000000eb0070079800d0
:102dec00450037006e4090001dfc07006e409000bf
:102dfc0026ff070010079800ee0090005e00900080
:102e0c00808040001e009000808f5000040036002f
:102e1c001e009000ee00900001005000500798003a
:102e2c00117680006e009000008040002007980012
:102e3c00d17580002e009000808f5000070031006b
:102e4c00c1758000d0758000808050002e009000ed
:102e5c00008040000000e90020079800d175800038
:102e6c002e00900000805000000fe8005e009000e3
:102e7c009e0f50000a003e00d2cebf00ce00900044
:102e8c00810278005e029000804178002e01900053
:102e9c0011c0b30005007800be0c07001400370009
:102eac0021ed2000914078004e0090001e02780029
:102ebc00814178002e01900011c0b300b50c0700c1
:102ecc005e0090009e00500022ed20001241780020
:102edc00c57580004e0090001e0040000102780075
:102eec00824178000501780011c0b300a90c0700dd
:102efc005e009000700798007e0090000080fa0041
:102f0c00000006000600fa002047980021079800f0
:102f1c00ae019000120020008e0078002e40900030
:102f2c00a2ff07001e4078000080fb000080fa0022
:102f3c00000006004000fa0020779800211f98003e
:102f4c00321f9800431f9800541f9800651f98006b
:102f5c002e709000e14f500003003e003e18900090
:102f6c000000e00003003a000000eb00701f980026
:102f7c00320137002e709000b9fb07002e709000c4
:102f8c00c2fe0700800078004e18900000805000b0
:102f9c0070079800fe0090003e189000808f500043
:102fac00030031008080eb00711f98002301370073
:102fbc005e1890000000e00006003200fe00900059
:102fcc005e189000808f5000020036005e18900052
:102fdc0070079800117680004e1890000080400019
:102fec0050079800d17580005e009000808f5000d3
:102ffc0007003100c1758000d075800080805000c2
:10300c005e009000008040000000e900500798002e
:10301c00de009000010f9800d17580005e009000da
:10302c00008050000000e800600798004e189000e7
:10303c0050079800be189000410798002e18900079
:10304c00300798002e189000904078003147980077
:10305c002e1890000000e800201f98000000eb00e4
:10306c00000f78006e1890000000e0000c00320099
:10307c00be40900000c6b30080cf50000800360060
:10308c00be409000a0c7b30080cf500004003e00ab
:10309c003e40900001ceb300014040003047980004
:1030ac0000c2b300204798002e4090008080fb00a7
:1030bc006e009000808f5000020036006e00900071
:1030cc00204798002e4090008080fb007e009000ee
:1030dc00808f5000020036007e0090002047980040
:1030ec002e4090008080fb0022ed200012417800e1
:1030fc007200470001027800824178000e099000ae
:10310c0011c0b300230c07002e4090008080fb0000
:10311c000e08900001004000000f98002e40900017
:10312c008080fb006e00900001005000600798004a
:10313c006e0090000000e00004003a00c0758000b2
:10314c00000f98000080eb00600798006e1890004c
:10315c000000e0006f0032000040eb004047980098
:10316c00670037004e4090008080fb0072004700e3
:10317c00008040009040780000c6b30080cf500023
:10318c00160036004e4090008080fb007200470015
:10319c000080400090407800a0c7b30080cf500062
:1031ac000e003e004e4090000081fb004e4090000f
:1031bc008080fb00720047000080400010407800c7
:1031cc008040780000ceb30000c040008040780002
:1031dc007200470000004100014878004e4090000a
:1031ec008080fb0072004700008040009040780017
:1031fc003e40900080cf500024003a003e189000d2
:10320c000000e900301f98003e1890000000e0001c
:10321c0009003a00de0090004e00900080805000c3
:10322c004e4090000080fb00008040000000e80051
:10323c00701f9800810037002e1890009040780085
:10324c00314798002e1890000000e800201f9800cd
:10325c0010002000000f7800be40900000c6b300a4
:10326c0080cf500023003600be409000a0c7b300b2
:10327c0080cf50001f003e003e40900001ceb300b6
:10328c0001404000304798001a0037004e00900073
:10329c00301f98001e00e00016003200be009000a7
:1032ac00211f98002e18900090407800314798000c
:1032bc002e1890000000e800201f9800be409000df
:1032cc0000c6b30080cf500008003600be4090000e
:1032dc00a0c7b30080cf500004003e003e409000d9
:1032ec0001ceb30001404000304798000000eb00d5
:1032fc00000f78004e4090000040e80040479800d6
:10330c00ce4090002e40900080cf500095ff3900a9
:10331c00380037000040eb00404798003100370080
:10332c004e4090008080fb007200470000804000ff
:10333c00904078003e40900080cf500018003a003a
:10334c003e1890000000e900301f98003e189000d5
:10335c000000e00009003a00de0090004e009000f2
:10336c00808050004e4090000080fb0000804000a8
:10337c000000e800701f9800300037002e189000f5
:10338c0090407800314798002e1890000000e8001b
:10339c00201f980010002000000f78000e0037004e
:1033ac004e009000301f98001e00e0000a00320012
:1033bc00be009000211f98002e18900090407800bd
:1033cc00314798002e1890000000e800201f98004c
:1033dc000000eb00000f78004e4090000040e80029
:1033ec0040479800ce4090002e40900080cf500077
:1033fc00cbff39002e4090008080fb007e009000b7
:10340c000100500070079800fe0090003e189000dc
:10341c00808f5000030031000080eb00701f98007b
:10342c00060037002e4090008080fb005e0090006c
:10343c00010040005007980019ff37007e189000db
:10344c000080fa00000006000800fa00004f780027
:10345c00114798001207980023079800340798002a
:10346c008e00e800be0290002e0290009e0190009b
:10347c00120020001e407800aefe07000080fa000b
:10348c00000006001000fa00881f78000040eb00d6
:10349c00004f9800bf0137000e48900070fa0700eb
:1034ac000040eb00204798000000eb00300798002c
:1034bc000000eb00200798007176800000202000af
:1034cc00008060000000e00005003a00707680008b
:1034dc0001402000010060000000e0000b00320001
:1034ec0014630200000000000000e000070032003e
:1034fc0000c1b30020479800707680004a00de00bf
:10350c00614060000080fb003007980070768000fe
:10351c0001022000010060000000e0000800320001
:10352c0048768000c4a30200000000000000540094
:10353c000000e00002003c0000c1b30020479800ee
:10354c007076800001042000010060000000e000a3
:10355c000800320058768000c4a30200000000006e
:10356c00000054000000e00002003c0000c1b30069
:10357c002047980060768000eb0f50000a003a005c
:10358c0058768000c4a30200000000000000540024
:10359c000000e00004003c0010c1b300204798007c
:1035ac00c00020006076880060768000e40f500038
:1035bc0056003a000000eb00000f78005000370076
:1035cc001e0078007400b900f0004000a0e7200055
:1035dc0000804000100078000000e0004b0032003a
:1035ec001e0078007400b900f0004000a0e7200035
:1035fc00008040009000780080768000808f500022
:10360c003e003a0038fa07001e0078007400b9003a
:10361c0080007800a0e720000080400081e62000b8
:10362c0009000900b0587800a000b1001e00780015
:10363c007400b900ea004000a0e7200000804000c0
:10364c0010007800007388001e0078007400b90028
:10365c00ec004000a0e72000008040001000be00fd
:10366c0061004000e0804800d0728800e172880060
:10367c005173800040738000808040000073800094
:10368c008080400010738000008068008076880085
:10369c0020c1b300204798006000200060768800ad
:1036ac00220020001e0051007400b90000017800b7
:1036bc001e0078007400b90080007800e0e820005b
:1036cc0000804000800278001e0078007400b90071
:1036dc0080007800a0e72000008040000202780003
:1036ec0013c0b3000501780011c0b300a90a07008c
:1036fc000000eb0090758800040037001e0fe800f6
:10370c00230020009e8f1100adff36002e4090004c
:10371c000004e0000a0032000040eb00204f98004b
:10372c003e0090000000e00002003a0011c0b3001f
:10373c00214f9800ae4890002e409000ad0107003c
:10374c0070768000700060000000e0002c003a00f1
:10375c0060768000e70f50000b013a009ca302003a
:10376c00000000000001be00207680003176800051
:10377c000000510081805900e00f5000e08f58008c
:10378c00010135007076800067006000e60f500084
:10379c000e003a00707680004300de00614060004d
:1037ac00204798000e48900020fb07000e48900020
:1037bc001efb07002e4090000004e000f2003a00cf
:1037cc00e000200060768800ef003700c6f90700a3
:1037dc0021c0b30000c1b300860107009ca3020006
:1037ec000000000082962800930020000000410099
:1037fc00818049002076880031768800e20037000d
:10380c009ca30200000000000001be002076800096
:10381c00317680000000510081805900e00f50008b
:10382c00e08f5800d8003500aff9070060768000b3
:10383c006101b800e0ff2f00f1ff2f0002014000f2
:10384c00838148006207980073079800a00020004d
:10385c00010020006e019000fe019000800f5100cd
:10386c00818f590096003e006e009000fe00900083
:10387c00006001000a00370012003700900037008a
:10388c003500370042003700550037006100370023
:10389c006d00370071003700510037007c00370095
:1038ac00c4a30200000000004076880080e62000df
:1038bc004084020000000000300020006076880088
:1038cc007f003700c1e6200080e620000c85020056
:1038dc00000000000000e00018003a00c4a3020041
:1038ec0000000000800078004076800000815000cd
:1038fc0090728000a1728000800f51007000360021
:10390c0078cebf00e54f500009003e0078cebf00d6
:10391c000040e80078eeb70090728000a172800041
:10392c00000040008180480090728800a1728800dd
:10393c0020002000607688006100370020c0b300b2
:10394c00204798000000eb00300798005000200042
:10395c00607688005a00370020c0b30020479800da
:10396c00100020003007980078cebf00e34f5000c5
:10397c005300360040c0b30078eeb700002424009a
:10398c00f100200090728800a17288004c00370072
:10399c0078cebf00e14f500005003e0020c1b300bf
:1039ac002047980010002000300798004400370092
:1039bc0070768000680060000000e00005003200b6
:1039cc0040c1b30020479800100020002007980049
:1039dc003b00370020c0b300204798003800370068
:1039ec0078cebf00e44f500005003e0000c1b3008c
:1039fc002047980010002000300798003000370056
:103a0c00800020006076880010c1b3002047980029
:103a1c002b00370078cebf00e44f500005003e006d
:103a2c0010c1b30020479800100020003007980008
:103a3c002300370040c1b30020479800100020003d
:103a4c00200798001e00370040c1b30020479800a3
:103a5c0010002000200798001900370078cebf0016
:103a6c00e44f500005003e0000c1b3002047980011
:103a7c0010002000300798001100370040c1b3003f
:103a8c002047980010002000200798000c003700f9
:103a9c0078cebf00e44f500005003e0010c1b300cb
:103aac0020479800100020003007980004003700d1
:103abc0040c1b30020479800100020002007980058
:103acc002e4090000004e0002b0032003e009000dd
:103adc000000e0002500320078cebf000040e80076
:103aec0078eeb70090728000a17280000000400058
:103afc008180480090728800a1728800f172800069
:103b0c00f0758000008f5000f1728000f07580001d
:103b1c00808f500004003100c0758000b1758000aa
:103b2c00010050001e0f4000b2728000c372800072
:103b3c001e00780001002000000051008180590017
:103b4c00b0728800c1728800207380001e00400093
:103b5c0020738800f0758000f07288008040eb00c4
:103b6c002e409000a30007000300370011c0b300e3
:103b7c002e4090009f0007002e0090000000e000f7
:103b8c0001003200dd0307000e4890000040e80001
:103b9c00004f98000e489000e14f50003efe36005a
:103bac000000eb00000f78002d0037001e0078009d
:103bbc007400b900f0004000a0e720000080400035
:103bcc00100078000000e00028003200c4a30200be
:103bdc0000000000000178001e0078007400b9009d
:103bec00f2004000a0e720000080400010007800a8
:103bfc0080005100c02d2000808f5000170036002f
:103c0c00210020001e8050007400b90000017800d3
:103c1c001e0078007400b90080007800e0e82000f5
:103c2c0000804000800278001e0078007400b9000b
:103c3c0080007800a0e7200000804000020278009d
:103c4c0013c0b3000501780011c0b300510907007f
:103c5c000000eb00907588001e0fe9001e0fe800b5
:103c6c00220020009e0f1100d0ff36004f04780078
:103c7c000080fa00000006002e00fa0030179800b1
:103c8c004117980052179800be1090001182fb004b
:103c9c00114090000080fb004800dd000400700023
:103cac0000017800214090000082fb003140900020
:103cbc000080fb004800dd000400700080017800eb
:103ccc00760047000288be004e1090001000be0027
:103cdc00760147002001980031019800f60047005a
:103cec000040eb0080489800f600470060c0b3002d
:103cfc009048980076004700de1090005100980024
:103d0c007600470050009000086f02000000000091
:103d1c00800078007600470051009800760047003c
:103d2c00c1002000806f0200000000000080ea004b
:103d3c00101798005e1090006069020000000000ef
:103d4c00201798009e1090002e109000808f50002d
:103d5c00050032002064020000000000100020006a
:103d6c0060179800200037000000eb00fa9c02005e
:103d7c00000000000e80e80041012000c66802002f
:103d8c00000000000e80e800250307000e80e8000c
:103d9c00600090004400de006f4060004200dd00d7
:103dac00744f50009e80fb005e109000010050008c
:103dbc0074005000501798000e80e800be10900060
:103dcc00fc0107000000e000030032000e80e80058
:103ddc00de109000e50307002064020000000000e4
:103dec0011002000611798006e1090000080fa00fe
:103dfc00000006002a00fa00006f9800116f98006e
:103e0c0039f807000e6890000080fb00610060002c
:103e1c000004e00005003200cf6ea8000e68900090
:103e2c00e1cfb30001406000006f9800ceaea90056
:103e3c00cecea900ceeea900cf2ea900cf4ea90060
:103e4c00cf0ea90014630200000000000000e00087
:103e5c00fcff32000e6890000080fb0066006000e2
:103e6c000000e000030032000000eb00000f7800bf
:103e7c007d003700e1758000f0728000808f50006b
:103e8c0003003a000000eb00000f780068003700d8
:103e9c00e1758000f0728000808f500019003600b0
:103eac00e0758000f1728000010f500020738000db
:103ebc009e0f50000200310020738000000f78002c
:103ecc00b07380009e0f500003003100b17380006e
:103edc00010f7800cf4ea800d2cebf00f272800046
:103eec001e027800804178008040eb00201a2100ef
:103efc00a8080700f07280001e004000f0728800d5
:103f0c004b003700c1758000f0728000808050003b
:103f1c007c004700510098007c004700d0009000c6
:103f2c00e075800080804000b0758000008f5000ec
:103f3c00207380009e0f500002003100207380001f
:103f4c00000f7800b07380009e0f5000030031000a
:103f5c00b1738000010f7800cf4ea8007c004700a1
:103f6c00500090009e0f5000030036007c0047006c
:103f7c009e007800510098007c0047005000900093
:103f8c0021ed200091407800f27280000002780050
:103f9c00814178008040eb00201a21007d08070049
:103fac007c004700500090009e0010007c004700f1
:103fbc00510098007c004700500090000000e00089
:103fcc000e0032007c0047005001900023ed2000d1
:103fdc0093417800b5758000c1758000f072800047
:103fec0080805000201a21000080400002027800de
:103ffc00050178008040eb0066080700f072800035
:10400c001e004000f0728800f1728000c0758000c4
:10401c00808f500006003900f2728000c17580005c
:10402c00b07580000080500000005100f0728800d4
:10403c007076800001802000010060000000e0002c
:10404c0009003200207380009e0f500006003200e1
:10405c00b07380009e0f5000030032000e68900079
:10406c000004a000006f98001e00e00005003a005c
:10407c000e6890000080fb00630060000000e00010
:10408c001d003200207380001e0050002073880039
:10409c001e00e000030032000e6890000034a00007
:1040ac00006f98001e6890000080fb0061006000ab
:1040bc000004e000060032000040eb0078eeb70090
:1040cc0040422f000100200090728800a1728800ed
:1040dc009ca302000000000092728000a37280007a
:1040ec0000004100818049002076880031768800ec
:1040fc00ce8ea800370037001e6890000080fb00b1
:10410c000000d100610060000004e00014003200e7
:10411c0070768000674060000040e80067406000f7
:10412c000080fb00670160007176800080ff2f002b
:10413c00008060000200700070768800b072800011
:10414c00c172800061005000e0805800b07288009d
:10415c00c172880010002000000f78001d0037008d
:10416c0070768000700060000000e00019003200e2
:10417c001e6890000080fb00610060000000e00001
:10418c000c003a0078cebf000004e00009003200b9
:10419c0078cebf000040e90078eeb7009072800046
:1041ac00a17280008100d1000080d3009072880041
:1041bc00a17288009ca30200000000009272800093
:1041cc00a3728000000041008180490020768800a5
:1041dc003176880011738000640047000108780074
:1041ec00017380006400470011009800b0728000d9
:1041fc00c1728000640147002001980031019800d1
:10420c00d0728000e1728000640147004001980088
:10421c005101980064014700e2009000f0ff230078
:10422c00008060006001980064014700e20090008b
:10423c0000ff2f00008060006001980064004700c0
:10424c008e68900051489800e40047000000eb0095
:10425c0090089800b2728000c37280001e00780033
:10426c00010020000200400083804800b0728800ea
:10427c00c17288000e6890000080fb000000d10025
:10428c00610060000004e0001e0032000e68900027
:10429c000080fb004400de00610060000000e000d4
:1042ac0004003a00640147006000b8004001980027
:1042bc0051019800a0738000620060000000e000d3
:1042cc000900320064004700b0009000200090000c
:1042dc0061005000e0805800640147002001980004
:1042ec003101980007003700b0728000c172800065
:1042fc0061004000e0804800b0728800c172880004
:10430c00742ea8000e6890000080fb006100600015
:10431c000004e00001003200740ea8000176800059
:10432c0010768000808f50000a003900d175800013
:10433c00c0758000008150000176800010768000ee
:10434c00008050008000510064004700710098000c
:10435c000600370011768000007680000080500047
:10436c008000e90064004700710098002a64020094
:10437c0000000000100798009e009000f003200041
:10438c00808f500003003e000000eb0010079800e7
:10439c00040037001e00900001fc2f0001004000bb
:1043ac001007980064004700f00090001e00900079
:1043bc00808f5000030036009e0090006400470080
:1043cc007100980064004700950107001e007800fa
:1043dc00740f400064014700e2009000f0f02f00e1
:1043ec000080600001052000010070006001980051
:1043fc000e6890000080fb000000d100610060009e
:10440c000004e000170032009e007800648f40002a
:10441c0020c0b300005f980040c0b300105f98004c
:10442c0020802100500f980064004700600090002d
:10443c004400de006f4060000040e8006f40600008
:10444c00e40147000080fb006f0060004401dd00c8
:10445c00e3009000f0f02f0000806000020070007c
:10446c00e0019800b6cabf008080fb00b7cabf004d
:10447c000080fb004800dd000100700000017800a6
:10448c00b8cabf008080fb00b9cabf000080fb0027
:10449c004800dd0001007000800178007c004700be
:1044ac000288be0040738000517380007c0147007d
:1044bc002001980031019800fc0047000040eb00ff
:1044cc0080489800fc00470060c0b30090489800fa
:1044dc007c0047009e007800510098007c0047004b
:1044ec0050009000086f020000000000800078006f
:1044fc007c004700510098007c004700c100200060
:10450c00806f0200000000008080ea006400470019
:10451c0001089800a0172100266602000000000088
:10452c001e01780061c0b30080e620005c9c020094
:10453c0000000000640047004101200038690200bf
:10454c00000000000e6890000080fb000000d1000d
:10455c00610060000004e0000400320078004700b5
:10456c00410020003869020000000000e018210022
:10457c003c660200000000001e007800606902002a
:10458c000000000010079800e019210026660200c8
:10459c00000000000e80e8002100200038690200b5
:1045ac0000000000e0650200000000000080fa003e
:1045bc00000006000c00fa00881f780030079800f5
:1045cc00410798003e009000100090000000e000b1
:1045dc0003003a000000eb00500798000c01370074
:1045ec00e0cfb30040479800ce00900021409000ef
:1045fc000081fb00314090000080fb004800dd0092
:10460c0002007000000178004e0090009080fb00ca
:10461c00104090000080fb004800dd00010070009d
:10462c00800041003e009000100078008080400027
:10463c003e00900010009000008068001007980069
:10464c000040eb0050479800380037005e40900067
:10465c0003f6070060768000ed0f5000300032004a
:10466c0060768000e40f500008003a0080768000ed
:10467c00be00900091009000810f500028003a007d
:10468c00de4090004147980025003700817680007d
:10469c001e009000808f500021003a0012f6070097
:1046ac003e0090009000900010738000808f5000ae
:1046bc001b003a003e0090009000780000738000d0
:1046cc00808f500016003a00ce0090001182fb0043
:1046dc00114090000080fb004800dd0004007000d9
:1046ec0000017800214090000082fb0031409000d6
:1046fc000080fb004800dd000400700080017800a1
:10470c004073800051738000800f5100818f5900dd
:10471c0003003a001000200050079800bc0037003e
:10472c005e4090000040e800504798005e409000ca
:10473c00e14f5000c5ff36004e409000e24f400064
:10474c00180032004e409000c5f50700e6f5070052
:10475c004e409000e24f4000120032009e0090004c
:10476c00817688004e00900081e620000900090047
:10477c00b0587800a000b1003e0090001000780006
:10478c00007388003e0090001000900010738800a9
:10479c00b0758000f072880010002000500798005f
:1047ac009b0037003e009000e000900000202000ad
:1047bc00008060000000e00003003a008000eb0085
:1047cc005107980092003700907580000000e000bf
:1047dc00030032000000eb00500798008c003700fb
:1047ec000000eb00000f7800400037001e0078003e
:1047fc007400b900f0004000a0e7200000804000e9
:10480c00100078000000e0003b0032001e00780031
:10481c007400b900f0004000a0e7200000804000c8
:10482c00900078003e00900010009000808f5000a7
:10483c002d003a001e0078007400b900ea00400018
:10484c00a0e7200000804000900078003e0090001f
:10485c0010007800808f500023003a001e00780072
:10486c007400b90080007800a0e7200000804000b0
:10487c001003be00ce0090001182fb00114090008e
:10488c000080fb004800dd0004007000000178008f
:10489c00214090000082fb00314090000080fb0022
:1048ac004800dd000400700080017800820f530086
:1048bc00838f5b000c003a001e047800c4a3020036
:1048cc0000000000000178007440b900f2004000c4
:1048dc00a0e7200000804000020878008000eb0078
:1048ec00510798004a0037001e0fe80020002000f6
:1048fc009e0f1000bdff36000040eb0050479800a3
:10490c003e0037005e40900055f507007076800041
:10491c00680060000000e0003500320072f507000e
:10492c0010738000be00900091009000810f500029
:10493c002f003a001e0078007400b9008000780047
:10494c00a0e72000808040004e0090000900090084
:10495c00b0587800a100b100a000b1009e00780012
:10496c003e009000100178007408b900ea00400085
:10497c00a0e7200000804000020878009e0078002c
:10498c003e00900020019000b00190007408b90026
:10499c00ec004000a0e72000008040000288be0030
:1049ac009e0078003e009000100190007408b90041
:1049bc00f0004000a0e720000080400002087800d2
:1049cc001e047800c4a3020000000000000178005f
:1049dc007440b900f2004000a0e7200000804000c5
:1049ec00020878008000eb0051079800080037009f
:1049fc005e4090000040e800504798005e409000f8
:104a0c00e14f5000bfff36000000eb00500798004c
:104a1c005e0090004f0478000080fa000000060051
:104a2c000200fa00000f78001e00780010007800d9
:104a3c00086f020000000000800078001e00780063
:104a4c00010878001e00780010009000086f02002a
:104a5c0000000000800078001e0078001100980013
:104a6c001e007800b000900020009000226f020021
:104a7c00000000001e017800200198003101980010
:104a8c001e007800d000900040009000226f0200c1
:104a9c00000000001e0178004001980051019800b0
:104aac001e00780070009000086f020000000000eb
:104abc00800078001e007800710098001e007800bd
:104acc0000089000086f02000000000080007800d1
:104adc001e007800010898001e0078001008900055
:104aec00086f020000000000800078001e007800b3
:104afc00110898000080fa00000006000200fa007d
:104b0c00881f7800f8f40700107380008076880006
:104b1c00b0758000e0758800b0758000f075880075
:104b2c00c075800000768800c07580001076880003
:104b3c0070768000680060000000e0000300320026
:104b4c0040002000000f780002003700d000200049
:104b5c00000f78001e00780060768800ce0ea90049
:104b6c00ce2ea900ce4ea900ce8ea900ceaea900a5
:104b7c00cecea900ceeea900cf0ea900cf2ea90053
:104b8c00cf4ea900cf6ea900cf8ea800740ea9003d
:104b9c00742ea900746ea900748ea900b0758000e3
:104bac00f072880068e52000426a020000000000f4
:104bbc00000c780068e52000426a0200000000004a
:104bcc00100498000080eb00907388001000200007
:104bdc00207388004f0478000080fa000000060063
:104bec000600fa00881f7800c0002000fa9c020022
:104bfc0000000000a06802000000000010479800b0
:104c0c001e4090008080fb00000f200000806000a0
:104c1c004280de0074405000104798001e40900007
:104c2c000004e00003003a008021200020079800d7
:104c3c004a003700710020000000eb00c66802003b
:104c4c00000000003d003700a068020000000000da
:104c5c00004f78001e04e0003e00320010c0b3008c
:104c6c009e4f10003500320020c0b3009e4f100044
:104c7c0022003a001e409000e24f500035003600f2
:104c8c000000eb0010079800a06802000000000074
:104c9c00004f780040c0b3009e4f100009003a004e
:104cac000e80e8000004e800a0680200000000008c
:104cbc00004c78000e84e800a068020000000000a0
:104ccc00004c78009e00900070212000808f5000d6
:104cdc00200036009e009000405b2000808f50002a
:104cec0003003600405b2000200798001b003700b3
:104cfc001e00900020079800180037001e409000fe
:104d0c00e14f500013003600a068020000000000c4
:104d1c00004f78001e4090009e4f50000d0039004f
:104d2c009e80fb000000eb00c66802000000000043
:104d3c001e4090001e405000104798001e409000ee
:104d4c000040e900104798001e409000e14f4000e1
:104d5c00bdff3a0080212000200798002e00900013
:104d6c004f0478000080fa00000006002800fa00ca
:104d7c00700f9800011798007e089000d0489000a2
:104d8c00614f98007e08900040019000d001900087
:104d9c0052079800630798007e089000200190004d
:104dac00b00190003207980043079800ce0ea9007e
:104dbc00ce2ea900ce4ea900707680007000600047
:104dcc000000e00008003a009ca302000000000074
:104ddc008296280093002000000041008180490049
:104dec00207688003176880063768000331798002f
:104dfc003e109000e40f500004003200be109000f2
:104e0c00e58f50002e0032007d0037006e48900078
:104e1c000080fb004200de00610060000004e00046
:104e2c000200320035ff0700170437006e4890006f
:104e3c000080fb004400de00610060000004e00024
:104e4c00090032005e019000ee019000b272880001
:104e5c00c37288008040eb0040c0b300e5fb070044
:104e6c0026ff0700080437006e4890000080fb0006
:104e7c000000d100610060000004e0000e00320070
:104e8c003e009000ce00900061004000e0804800a1
:104e9c00d0728800e172880051ff0700b07388005f
:104eac0011c0b30020c1b300d2fb0700600020008a
:104ebc0060768800f403370010ff0700f203370018
:104ecc006e4890000080fb004200de006100600034
:104edc000004e000ec033a006e4890000080fb00f8
:104eec004400de00610060000004e00017003200a6
:104efc00b2728000c37280005e009000ee009000e1
:104f0c00800f5100818f590010003200b072800068
:104f1c00c172800030079800410798005e01900034
:104f2c00ee019000b2728800c372880011c0b30009
:104f3c0040c0b300affb07003e009000ce009000d5
:104f4c00b0728800c1728800cf0337006e489000a1
:104f5c000080fb000000d100610060000004e00054
:104f6c00c90332003e009000ce009000610040006a
:104f7c00e0804800d0728800e17288007e089000c2
:104f8c00700090002073880015ff0700b073880034
:104f9c006e4890000080fb004400de006100600061
:104fac000004e0001000320011c0b30000c1b300d7
:104fbc0090fb070070002000607688009ca3020024
:104fcc00000000000001be00809628009100200027
:104fdc0002004000838048002076880031768800eb
:104fec00ce8ea900a803370011c0b30020c1b300b6
:104ffc0080fb07006000200060768800a203370069
:10500c008e109000210798006e4890000080fb00e5
:10501c00610060000004e000030032002e009000ec
:10502c000000e800200798006e4890000080fb000c
:10503c000000d100610060000004e00003003200b9
:10504c002e0090000000e8002007980001768000f8
:10505c0010768000808f500009003900d1758000d7
:10506c00c0758000008150000176800010768000b1
:10507c000080500000005100000f98000500370020
:10508c001176800000768000008050000000e9005e
:10509c00000f9800d2728000e37280003e009000f6
:1050ac00ce0090000200500083805800200f980022
:1050bc00310f98002e099000120f98000000eb00a1
:1050cc00100798002e0090000000e0003500320020
:1050dc000e0890000000e000480032002e089000fe
:1050ec00be089000e00f5000e08f58000a00350019
:1050fc000e0890006101b8002e089000be089000c8
:10510c00800f5100818f59000300360010002000e1
:10511c0010079800140037002e0090006101b800b1
:10512c002e089000be0890000200400083804800ca
:10513c00e00f5000e08f58000b0034008e089000f8
:10514c002e009000008050006101b9002e089000e4
:10515c00be089000800f5100818f5900020035006d
:10516c0010002000100798000e0890006101b80094
:10517c002e089000be089000800f5100818f5900be
:10518c001e0034001e089000ae009000010040008c
:10519c000000e000190034001000200010079800f7
:1051ac00160037002e089000be089000e00f50004b
:1051bc00e08f580003003a00100020001007980000
:1051cc000e0037002e089000be089000e00f500033
:1051dc00e08f5800090035000e0890006101b800fe
:1051ec002e089000be089000800f5100818f59004e
:1051fc000200360010002000100798001e009000de
:10520c000000e0000a003a006e4890000080fb00ad
:10521c004200de00610060000000e0001a033a006a
:10522c0011c0b30000c1b300f2fa07001603370037
:10523c006e4890000080fb00660060000000e000fb
:10524c00020032002dfe07000f0337006e4890005d
:10525c000080fb004400de00610060000000e00004
:10526c000903320063768000231798002e109000fb
:10527c00eb0f500007003e00ae109000e78f50007f
:10528c00210031002e119000e60f51000500320074
:10529c0067013700ae119000ec8f510059013200bc
:1052ac0063013700b2728000c37280005e00900010
:1052bc00ee009000800f5100818f590010003200d9
:1052cc00b0728000c17280003007980041079800ce
:1052dc005e019000ee019000b2728800c3728800eb
:1052ec0011c0b30040c0b300c2fa07003e009000ea
:1052fc00ce009000b0728800c1728800e2023700c4
:10530c007000200060768800e1758000f0728000eb
:10531c0000805000400f98004e0890000000e00004
:10532c0006003d00c1758000b07580008080500083
:10533c004e08900001004000400f9800b2728000af
:10534c00c37280004e089000010020000200400053
:10535c0083804800500f9800610f98005e01900008
:10536c00ee0190005e089000ee08900000005100e5
:10537c0081805900500f9800610f98005e089000d2
:10538c00ee089000e00f5000e08f5800150034003c
:10539c00a0738000610060000000e0000700320094
:1053ac005e099000ee099000100020000100200022
:1053bc00800f5100818f5900040032008040eb00b7
:1053cc0000c1b3008bfa0700af0237005e009000fb
:1053dc00ee00900061005000e080580050079800eb
:1053ec0061079800b2728000c3728000f172800075
:1053fc00f075800000805000cf80de00000051006e
:10540c0081805900500f9800610f9800f172800054
:10541c00f0758000808f50000a003100c17580004b
:10542c00b0758000008050006101b8005e089000eb
:10543c00ee0890000200500083805800500f980036
:10544c00610f98005e019000ee0190005e089000e4
:10545c00ee0890000000510081805900500f980018
:10546c00610f98005e089000ee089000e00f50006d
:10547c00e08f580052003400c1758000b075800078
:10548c00008050006101b8005e089000ee089000aa
:10549c00800f5100818f590049003900746ea900aa
:1054ac00748ea900cf0ea900f1758000410f9800f1
:1054bc00f17580005e08900000804000f075880057
:1054cc00f17280004e089000808f5000110039005e
:1054dc00f1728000f0758000808f50002300310045
:1054ec00b2728000c3728000f1758000f07280008f
:1054fc000080500001002000020040008380480022
:10550c00b0728800c1728800f0758000f07288005b
:10551c0016003700f2728000c1758000b0758000f3
:10552c000080500000004100400f9800f175800091
:10553c004e089000808f50000c003600b272800034
:10554c00c3728000f17580004e08900000805000fe
:10555c00010020000200400083804800b0728800e7
:10556c00c1728800f0758000f0728800f1758000bf
:10557c00c0758000808f500006003900f2758000e5
:10558c00c1758000b0758000008050000000510093
:10559c00f0758800f1728000c0758000808f50001b
:1055ac0030003900f2728000c1758000b075800047
:1055bc000080500000005100f07288002900370074
:1055cc00f1758000f0728000808f50002500320051
:1055dc00a0738000680060000000e0002000320032
:1055ec00a0738000700060000000e0001b0032001f
:1055fc00b2728000c3728000f1728000f07580007e
:10560c0000805000cf80de000000510081805900e6
:10561c00b0728800c1728800f1728000f075800051
:10562c00808f50000a003100b2728000c37280007b
:10563c00c1758000b075800000805000cf80de0006
:10564c000000510081805900b0728800c17288003e
:10565c00f0758000f0728800cf4ea800748ea80000
:10566c00746ea800f1758000e0758000808f50008a
:10567c001c003a0070768000018020000100600060
:10568c000000e0000a003a009ca3020000000000a9
:10569c008296280093002000000041008180490080
:1056ac002076880031768800ce8ea9000d00370058
:1056bc00b2728000c37280005e009000ee00900019
:1056cc00800f5100818f590006003a00a0738000b2
:1056dc00610060000000e00002003200ce8ea900e4
:1056ec00cf6ea9007e08900070019000b07280000f
:1056fc00c1728000800078005e0090000080500035
:10570c00000f5100207380000000e00003003a00fd
:10571c001e00e00001003200cf2ea8001e01780010
:10572c002273880060768000e80f500018003a0061
:10573c00b2728000c37280005e009000ee00900098
:10574c00800f5100818f590039003a00a0738000fe
:10575c00610060000000e000350032009ca30200f4
:10576c00000000000001be00404b2c004100200056
:10577c000200400083804800207688003176880043
:10578c00ce8ea8009000200060768800280037009c
:10579c0060768000e90f50000e003a006e489000d1
:1057ac000080fb00610060000000e00020003a0077
:1057bc005e009000ee009000b0728800c17288000c
:1057cc008040eb0040c1b3008af90700cbfc070016
:1057dc00ad01370060768000ea0f500014003a00eb
:1057ec00b2728000c37280005e009000ee009000e8
:1057fc00800f5100818f5900a3013a00bffc0700b4
:10580c00a1013700b0728000c172800061014000bc
:10581c00e08148005e009000ee009000800f510087
:10582c00818f590098013a00b4fc070096013700ab
:10583c006e4890000080fb004500de0061006000b7
:10584c000004e00090013a0060768000eb0f5000fd
:10585c008d01320060768000ea0f50008a01320020
:10586c0060768000ec0f5000870132000e10900023
:10587c000000e000180132001e0890000000e0005b
:10588c007b003c007e089000600090004400de002d
:10589c006f4060000080fb004200dd00800078005b
:1058ac001e08900000805000fa9c020000000000ce
:1058bc008e1090001e089000008040000017980089
:1058cc008e1090000e089000808f50000200360061
:1058dc008e08900001179800d2728000e37280004d
:1058ec000e10900001002000020040008380480050
:1058fc00d0728800e1728800017680000e10900052
:10590c0080804000d0758000808f50001e003600d3
:10591c00d175800000768000008050000000e80007
:10592c00400f980021ed2000914078000076800017
:10593c004e0a90008041eb000081eb00150207003d
:10594c008e1090004e0890000080500021ed200039
:10595c0091407800c5758000000278008041eb0012
:10596c000081eb00050078000a020700c275800078
:10597c008e1090004e0890000080500000004100f6
:10598c00007688000b00370021ed20009140780054
:10599c00007680000e1290008041eb000081eb003d
:1059ac00fc010700017680000e1090000080400082
:1059bc000076880090738000e10f4000c600320032
:1059cc0090738000800078000e10900000805000d2
:1059dc0090738800317380009073800000804000c9
:1059ec00400f98004e0890000000e00003003d00be
:1059fc000080eb0090738800b70037009073800034
:105a0c000000e000b4003c00d2728000e372800021
:105a1c004e089000010020000200400083804800e6
:105a2c00d0728800e1728800017680004e089000e8
:105a3c00008040000076880001768000d0758000e0
:105a4c00808f50000700360002768000c175800000
:105a5c00d075800000805000000041000000e9007b
:105a6c00007688000080eb00907388009a00370065
:105a7c001e0890000000e000970034008e1090008b
:105a8c001e089000808040000e089000808f50000f
